:1000000012C02BC01EC01DC01CC01BC01AC064C0C3
:1000100018C017C016C015C014C013C044C011C00A
:1000200010C00FC00EC011241FBECFEDCDBF20E009
:10003000A0E6B0E001C01D92A636B207E1F7B1D04C
:10004000CFC0DECF92B989B980E98AB986E283B997
:1000500008955D9BFECF8CB908951F920F920FB645
:100060000F9211248F939F9380916400909165006B
:10007000892B91F481E090E0909365008093640077
:100080008AB18F768AB9889A909A939A12BE83B76A
:10009000846083BF8BE48CBF9F918F910F900FBEC4
:1000A0000F901F9018951F920F920FB60F92112468
:1000B0008F939398889890988AB180698AB983B70A
:1000C000887F83BF10926500109264008F910F901B
:1000D0000FBE0F901F9018951F920F920FB60F92A0
:1000E00011242F933F938F939F938CB120916200A3
:1000F00030916300232B31F4833821F4959881E00B
:1001000090E00EC0209162003091630021303105F3
:1001100061F490E0909361008093600082E090E051
:10012000909363008093620033C02091620030910D
:1001300063002230310509F58830E1F428B380915D
:10014000600090916100922F9E7F8170892B88BB07
:1001500022B3809160009091610081709927809511
:10016000909534E0880F991F3A95E1F7922F9F7E82
:10017000892B82BB83E090E0D3CF80916200909185
:100180006300039729F41092630010926200959A1D
:100190009F918F913F912F910F900FBE0F901F90C5
:1001A0001895B89A8B9A8C9A8D9AB89A80E48BBFDE
:1001B00082E085BF83B78E7F83BF89B7846089BFA4
:1001C00087E790E03FDF7894959A949A2FEF8FE33A
:1001D00098E3215080409040E1F700C00000F6CF46
:0401E000F894FFCFC1
:00000001FF
